{
  "contractName": "TokenStaking",
  "abi": [
    {
      "inputs": [
        {
          "internalType": "contract DanzeToken",
          "name": "_danzeToken",
          "type": "address"
        }
      ],
      "payable": true,
      "stateMutability": "payable",
      "type": "constructor"
    },
    {
      "constant": true,
      "inputs": [],
      "name": "customAPY",
      "outputs": [
        {
          "internalType": "uint256",
          "name": "",
          "type": "uint256"
        }
      ],
      "payable": false,
      "stateMutability": "view",
      "type": "function"
    },
    {
      "constant": true,
      "inputs": [
        {
          "internalType": "address",
          "name": "",
          "type": "address"
        }
      ],
      "name": "customHasStaked",
      "outputs": [
        {
          "internalType": "bool",
          "name": "",
          "type": "bool"
        }
      ],
      "payable": false,
      "stateMutability": "view",
      "type": "function"
    },
    {
      "constant": true,
      "inputs": [
        {
          "internalType": "address",
          "name": "",
          "type": "address"
        }
      ],
      "name": "customIsStakingAtm",
      "outputs": [
        {
          "internalType": "bool",
          "name": "",
          "type": "bool"
        }
      ],
      "payable": false,
      "stateMutability": "view",
      "type": "function"
    },
    {
      "constant": true,
      "inputs": [
        {
          "internalType": "uint256",
          "name": "",
          "type": "uint256"
        }
      ],
      "name": "customStakers",
      "outputs": [
        {
          "internalType": "address",
          "name": "",
          "type": "address"
        }
      ],
      "payable": false,
      "stateMutability": "view",
      "type": "function"
    },
    {
      "constant": true,
      "inputs": [
        {
          "internalType": "address",
          "name": "",
          "type": "address"
        }
      ],
      "name": "customStakingBalance",
      "outputs": [
        {
          "internalType": "uint256",
          "name": "",
          "type": "uint256"
        }
      ],
      "payable": false,
      "stateMutability": "view",
      "type": "function"
    },
    {
      "constant": true,
      "inputs": [],
      "name": "customTotalStaked",
      "outputs": [
        {
          "internalType": "uint256",
          "name": "",
          "type": "uint256"
        }
      ],
      "payable": false,
      "stateMutability": "view",
      "type": "function"
    },
    {
      "constant": true,
      "inputs": [],
      "name": "danzeToken",
      "outputs": [
        {
          "internalType": "contract DanzeToken",
          "name": "",
          "type": "address"
        }
      ],
      "payable": false,
      "stateMutability": "view",
      "type": "function"
    },
    {
      "constant": true,
      "inputs": [],
      "name": "defaultAPY",
      "outputs": [
        {
          "internalType": "uint256",
          "name": "",
          "type": "uint256"
        }
      ],
      "payable": false,
      "stateMutability": "view",
      "type": "function"
    },
    {
      "constant": true,
      "inputs": [
        {
          "internalType": "address",
          "name": "",
          "type": "address"
        }
      ],
      "name": "hasStaked",
      "outputs": [
        {
          "internalType": "bool",
          "name": "",
          "type": "bool"
        }
      ],
      "payable": false,
      "stateMutability": "view",
      "type": "function"
    },
    {
      "constant": true,
      "inputs": [
        {
          "internalType": "address",
          "name": "",
          "type": "address"
        }
      ],
      "name": "isStakingAtm",
      "outputs": [
        {
          "internalType": "bool",
          "name": "",
          "type": "bool"
        }
      ],
      "payable": false,
      "stateMutability": "view",
      "type": "function"
    },
    {
      "constant": true,
      "inputs": [],
      "name": "name",
      "outputs": [
        {
          "internalType": "string",
          "name": "",
          "type": "string"
        }
      ],
      "payable": false,
      "stateMutability": "view",
      "type": "function"
    },
    {
      "constant": true,
      "inputs": [],
      "name": "owner",
      "outputs": [
        {
          "internalType": "address",
          "name": "",
          "type": "address"
        }
      ],
      "payable": false,
      "stateMutability": "view",
      "type": "function"
    },
    {
      "constant": true,
      "inputs": [
        {
          "internalType": "uint256",
          "name": "",
          "type": "uint256"
        }
      ],
      "name": "stakers",
      "outputs": [
        {
          "internalType": "address",
          "name": "",
          "type": "address"
        }
      ],
      "payable": false,
      "stateMutability": "view",
      "type": "function"
    },
    {
      "constant": true,
      "inputs": [
        {
          "internalType": "address",
          "name": "",
          "type": "address"
        }
      ],
      "name": "stakingBalance",
      "outputs": [
        {
          "internalType": "uint256",
          "name": "",
          "type": "uint256"
        }
      ],
      "payable": false,
      "stateMutability": "view",
      "type": "function"
    },
    {
      "constant": true,
      "inputs": [],
      "name": "totalStaked",
      "outputs": [
        {
          "internalType": "uint256",
          "name": "",
          "type": "uint256"
        }
      ],
      "payable": false,
      "stateMutability": "view",
      "type": "function"
    },
    {
      "constant": false,
      "inputs": [
        {
          "internalType": "uint256",
          "name": "_amount",
          "type": "uint256"
        }
      ],
      "name": "stakeTokens",
      "outputs": [],
      "payable": false,
      "stateMutability": "nonpayable",
      "type": "function"
    },
    {
      "constant": false,
      "inputs": [],
      "name": "unstakeTokens",
      "outputs": [],
      "payable": false,
      "stateMutability": "nonpayable",
      "type": "function"
    },
    {
      "constant": false,
      "inputs": [
        {
          "internalType": "uint256",
          "name": "_amount",
          "type": "uint256"
        }
      ],
      "name": "customStaking",
      "outputs": [],
      "payable": false,
      "stateMutability": "nonpayable",
      "type": "function"
    },
    {
      "constant": false,
      "inputs": [],
      "name": "customUnstake",
      "outputs": [],
      "payable": false,
      "stateMutability": "nonpayable",
      "type": "function"
    },
    {
      "constant": false,
      "inputs": [],
      "name": "redistributeRewards",
      "outputs": [],
      "payable": false,
      "stateMutability": "nonpayable",
      "type": "function"
    },
    {
      "constant": false,
      "inputs": [],
      "name": "customRewards",
      "outputs": [],
      "payable": false,
      "stateMutability": "nonpayable",
      "type": "function"
    },
    {
      "constant": false,
      "inputs": [
        {
          "internalType": "uint256",
          "name": "_value",
          "type": "uint256"
        }
      ],
      "name": "changeAPY",
      "outputs": [],
      "payable": false,
      "stateMutability": "nonpayable",
      "type": "function"
    },
    {
      "constant": false,
      "inputs": [],
      "name": "claimToken",
      "outputs": [],
      "payable": false,
      "stateMutability": "nonpayable",
      "type": "function"
    }
  ],
  "bytecode": "0x60806040526040518060400160405280601881526020017f44414e5a4520546f6b656e205374616b696e672044417070000000000000000081525060009080519060200190620000519291906200011b565b506064600355608960045560405162001dbf38038062001dbf833981810160405260208110156200008157600080fd5b810190808051906020019092919050505080600160006101000a81548173ffffffffffffffffffffffffffffffffffffffff021916908373ffffffffffffffffffffffffffffffffffffffff16021790555033600260006101000a81548173ffffffffffffffffffffffffffffffffffffffff021916908373ffffffffffffffffffffffffffffffffffffffff16021790555050620001ca565b828054600181600116156101000203166002900490600052602060002090601f016020900481019282601f106200015e57805160ff19168380011785556200018f565b828001600101855582156200018f579182015b828111156200018e57825182559160200191906001019062000171565b5b5090506200019e9190620001a2565b5090565b620001c791905b80821115620001c3576000816000905550600101620001a9565b5090565b90565b611be580620001da6000396000f3fe608060405234801561001057600080fd5b506004361061014d5760003560e01c80637cc302e5116100c3578063c93c8f341161007c578063c93c8f34146104d1578063cc8da8b81461052d578063cde5f47314610537578063dfb0e706146105a5578063fb5cd515146105fd578063fd5e6dd11461062b5761014d565b80637cc302e5146103db578063817b1cd2146103e55780638da5cb5b146104035780639bd629321461044d578063a5ce413b146104a9578063b4e892af146104b35761014d565b80635b5c58c3116101155780635b5c58c31461029f57806363fa1466146102fb57806366f1c920146103195780636d6010c1146103235780637547c7a31461037f57806376159b68146103ad5761014d565b806306fdde031461015257806307b7b4cb146101d55780630c500a4e1461021f5780634451d89f1461023d57806345bc78ab14610247575b600080fd5b61015a610699565b6040518080602001828103825283818151815260200191508051906020019080838360005b8381101561019a57808201518184015260208101905061017f565b50505050905090810190601f1680156101c75780820380516001836020036101000a031916815260200191505b509250505060405180910390f35b6101dd610737565b604051808273ffffffffffffffffffffffffffffffffffffffff1673ffffffffffffffffffffffffffffffffffffffff16815260200191505060405180910390f35b61022761075d565b6040518082815260200191505060405180910390f35b610245610763565b005b6102896004803603602081101561025d57600080fd5b81019080803573ffffffffffffffffffffffffffffffffffffffff169060200190929190505050610865565b6040518082815260200191505060405180910390f35b6102e1600480360360208110156102b557600080fd5b81019080803573ffffffffffffffffffffffffffffffffffffffff16906020019092919050505061087d565b604051808215151515815260200191505060405180910390f35b61030361089d565b6040518082815260200191505060405180910390f35b6103216108a3565b005b6103656004803603602081101561033957600080fd5b81019080803573ffffffffffffffffffffffffffffffffffffffff169060200190929190505050610af0565b604051808215151515815260200191505060405180910390f35b6103ab6004803603602081101561039557600080fd5b8101908080359060200190929190505050610b10565b005b6103d9600480360360208110156103c357600080fd5b8101908080359060200190929190505050610e9a565b005b6103e3610fa3565b005b6103ed6111ed565b6040518082815260200191505060405180910390f35b61040b6111f3565b604051808273ffffffffffffffffffffffffffffffffffffffff1673ffffffffffffffffffffffffffffffffffffffff16815260200191505060405180910390f35b61048f6004803603602081101561046357600080fd5b81019080803573ffffffffffffffffffffffffffffffffffffffff169060200190929190505050611219565b604051808215151515815260200191505060405180910390f35b6104b1611239565b005b6104bb611483565b6040518082815260200191505060405180910390f35b610513600480360360208110156104e757600080fd5b81019080803573ffffffffffffffffffffffffffffffffffffffff169060200190929190505050611489565b604051808215151515815260200191505060405180910390f35b6105356114a9565b005b6105636004803603602081101561054d57600080fd5b81019080803590602001909291905050506116f6565b604051808273ffffffffffffffffffffffffffffffffffffffff1673ffffffffffffffffffffffffffffffffffffffff16815260200191505060405180910390f35b6105e7600480360360208110156105bb57600080fd5b81019080803573ffffffffffffffffffffffffffffffffffffffff169060200190929190505050611732565b6040518082815260200191505060405180910390f35b6106296004803603602081101561061357600080fd5b810190808035906020019092919050505061174a565b005b6106576004803603602081101561064157600080fd5b8101908080359060200190929190505050611ad4565b604051808273ffffffffffffffffffffffffffffffffffffffff1673ffffffffffffffffffffffffffffffffffffffff16815260200191505060405180910390f35b60008054600181600116156101000203166002900480601f01602080910402602001604051908101604052809291908181526020018280546001816001161561010002031660029004801561072f5780601f106107045761010080835404028352916020019161072f565b820191906000526020600020905b81548152906001019060200180831161071257829003601f168201915b505050505081565b600160009054906101000a900473ffffffffffffffffffffffffffffffffffffffff1681565b60045481565b60003390506000683635c9adc5dea0000090506000819050600160009054906101000a900473ffffffffffffffffffffffffffffffffffffffff1673ffffffffffffffffffffffffffffffffffffffff1663a9059cbb84836040518363ffffffff1660e01b8152600401808373ffffffffffffffffffffffffffffffffffffffff1673ffffffffffffffffffffffffffffffffffffffff16815260200182815260200192505050602060405180830381600087803b15801561082457600080fd5b505af1158015610838573d6000803e3d6000fd5b505050506040513d602081101561084e57600080fd5b810190808051906020019092919050505050505050565b60076020528060005260406000206000915090505481565b600c6020528060005260406000206000915054906101000a900460ff1681565b60065481565b600260009054906101000a900473ffffffffffffffffffffffffffffffffffffffff1673ffffffffffffffffffffffffffffffffffffffff163373ffffffffffffffffffffffffffffffffffffffff1614610949576040517f08c379a0000000000000000000000000000000000000000000000000000000008152600401808060200182810382526037815260200180611b3d6037913960400191505060405180910390fd5b60008090505b600e80549050811015610aed576000600e828154811061096b57fe5b9060005260206000200160009054906101000a900473ffffffffffffffffffffffffffffffffffffffff1690506000600454600860008473ffffffffffffffffffffffffffffffffffffffff1673ffffffffffffffffffffffffffffffffffffffff16815260200190815260200160002054029050620186a081816109ec57fe5b0490506000811115610ade57600160009054906101000a900473ffffffffffffffffffffffffffffffffffffffff1673ffffffffffffffffffffffffffffffffffffffff1663a9059cbb83836040518363ffffffff1660e01b8152600401808373ffffffffffffffffffffffffffffffffffffffff1673ffffffffffffffffffffffffffffffffffffffff16815260200182815260200192505050602060405180830381600087803b158015610aa157600080fd5b505af1158015610ab5573d6000803e3d6000fd5b505050506040513d6020811015610acb57600080fd5b8101908080519060200190929190505050505b5050808060010191505061094f565b50565b600a6020528060005260406000206000915054906101000a900460ff1681565b60008111610b86576040517f08c379a00000000000000000000000000000000000000000000000000000000081526004018080602001828103825260198152602001807f4a756d6c6168206861727573206c65626968206461726920300000000000000081525060200191505060405180910390fd5b600160009054906101000a900473ffffffffffffffffffffffffffffffffffffffff1673ffffffffffffffffffffffffffffffffffffffff166323b872dd3330846040518463ffffffff1660e01b8152600401808473ffffffffffffffffffffffffffffffffffffffff1673ffffffffffffffffffffffffffffffffffffffff1681526020018373ffffffffffffffffffffffffffffffffffffffff1673ffffffffffffffffffffffffffffffffffffffff1681526020018281526020019350505050602060405180830381600087803b158015610c6357600080fd5b505af1158015610c77573d6000803e3d6000fd5b505050506040513d6020811015610c8d57600080fd5b810190808051906020019092919050505050806005540160058190555080600760003373ffffffffffffffffffffffffffffffffffffffff1673ffffffffffffffffffffffffffffffffffffffff1681526020019081526020016000205401600760003373ffffffffffffffffffffffffffffffffffffffff1673ffffffffffffffffffffffffffffffffffffffff16815260200190815260200160002081905550600960003373ffffffffffffffffffffffffffffffffffffffff1673ffffffffffffffffffffffffffffffffffffffff16815260200190815260200160002060009054906101000a900460ff16610de757600d3390806001815401808255809150509060018203906000526020600020016000909192909190916101000a81548173ffffffffffffffffffffffffffffffffffffffff021916908373ffffffffffffffffffffffffffffffffffffffff160217905550505b6001600960003373ffffffffffffffffffffffffffffffffffffffff1673ffffffffffffffffffffffffffffffffffffffff16815260200190815260200160002060006101000a81548160ff0219169083151502179055506001600b60003373ffffffffffffffffffffffffffffffffffffffff1673ffffffffffffffffffffffffffffffffffffffff16815260200190815260200160002060006101000a81548160ff02191690831515021790555050565b600260009054906101000a900473ffffffffffffffffffffffffffffffffffffffff1673ffffffffffffffffffffffffffffffffffffffff163373ffffffffffffffffffffffffffffffffffffffff1614610f40576040517f08c379a000000000000000000000000000000000000000000000000000000000815260040180806020018281038252602c815260200180611b11602c913960400191505060405180910390fd5b60008111610f99576040517f08c379a000000000000000000000000000000000000000000000000000000000815260040180806020018281038252603d815260200180611b74603d913960400191505060405180910390fd5b8060048190555050565b6000600860003373ffffffffffffffffffffffffffffffffffffffff1673ffffffffffffffffffffffffffffffffffffffff1681526020019081526020016000205490506000811161105d576040517f08c379a00000000000000000000000000000000000000000000000000000000081526004018080602001828103825260198152602001807f4a756d6c6168206861727573206c65626968206461726920300000000000000081525060200191505060405180910390fd5b600160009054906101000a900473ffffffffffffffffffffffffffffffffffffffff1673ffffffffffffffffffffffffffffffffffffffff1663a9059cbb33836040518363ffffffff1660e01b8152600401808373ffffffffffffffffffffffffffffffffffffffff1673ffffffffffffffffffffffffffffffffffffffff16815260200182815260200192505050602060405180830381600087803b15801561110657600080fd5b505af115801561111a573d6000803e3d6000fd5b505050506040513d602081101561113057600080fd5b81019080805190602001909291905050505080600654036006819055506000600860003373ffffffffffffffffffffffffffffffffffffffff1673ffffffffffffffffffffffffffffffffffffffff168152602001908152602001600020819055506000600c60003373ffffffffffffffffffffffffffffffffffffffff1673ffffffffffffffffffffffffffffffffffffffff16815260200190815260200160002060006101000a81548160ff02191690831515021790555050565b60055481565b600260009054906101000a900473ffffffffffffffffffffffffffffffffffffffff1681565b600b6020528060005260406000206000915054906101000a900460ff1681565b6000600760003373ffffffffffffffffffffffffffffffffffffffff1673ffffffffffffffffffffffffffffffffffffffff168152602001908152602001600020549050600081116112f3576040517f08c379a00000000000000000000000000000000000000000000000000000000081526004018080602001828103825260198152602001807f4a756d6c6168206861727573206c65626968206461726920300000000000000081525060200191505060405180910390fd5b600160009054906101000a900473ffffffffffffffffffffffffffffffffffffffff1673ffffffffffffffffffffffffffffffffffffffff1663a9059cbb33836040518363ffffffff1660e01b8152600401808373ffffffffffffffffffffffffffffffffffffffff1673ffffffffffffffffffffffffffffffffffffffff16815260200182815260200192505050602060405180830381600087803b15801561139c57600080fd5b505af11580156113b0573d6000803e3d6000fd5b505050506040513d60208110156113c657600080fd5b81019080805190602001909291905050505080600554036005819055506000600760003373ffffffffffffffffffffffffffffffffffffffff1673ffffffffffffffffffffffffffffffffffffffff168152602001908152602001600020819055506000600b60003373ffffffffffffffffffffffffffffffffffffffff1673ffffffffffffffffffffffffffffffffffffffff16815260200190815260200160002060006101000a81548160ff02191690831515021790555050565b60035481565b60096020528060005260406000206000915054906101000a900460ff1681565b600260009054906101000a900473ffffffffffffffffffffffffffffffffffffffff1673ffffffffffffffffffffffffffffffffffffffff163373ffffffffffffffffffffffffffffffffffffffff161461154f576040517f08c379a0000000000000000000000000000000000000000000000000000000008152600401808060200182810382526037815260200180611b3d6037913960400191505060405180910390fd5b60008090505b600d805490508110156116f3576000600d828154811061157157fe5b9060005260206000200160009054906101000a900473ffffffffffffffffffffffffffffffffffffffff1690506000600354600760008473ffffffffffffffffffffffffffffffffffffffff1673ffffffffffffffffffffffffffffffffffffffff16815260200190815260200160002054029050620186a081816115f257fe5b04905060008111156116e457600160009054906101000a900473ffffffffffffffffffffffffffffffffffffffff1673ffffffffffffffffffffffffffffffffffffffff1663a9059cbb83836040518363ffffffff1660e01b8152600401808373ffffffffffffffffffffffffffffffffffffffff1673ffffffffffffffffffffffffffffffffffffffff16815260200182815260200192505050602060405180830381600087803b1580156116a757600080fd5b505af11580156116bb573d6000803e3d6000fd5b505050506040513d60208110156116d157600080fd5b8101908080519060200190929190505050505b50508080600101915050611555565b50565b600e818154811061170357fe5b906000526020600020016000915054906101000a900473ffffffffffffffffffffffffffffffffffffffff1681565b60086020528060005260406000206000915090505481565b600081116117c0576040517f08c379a00000000000000000000000000000000000000000000000000000000081526004018080602001828103825260128152602001807f6861727573206c6562696820646172692030000000000000000000000000000081525060200191505060405180910390fd5b600160009054906101000a900473ffffffffffffffffffffffffffffffffffffffff1673ffffffffffffffffffffffffffffffffffffffff166323b872dd3330846040518463ffffffff1660e01b8152600401808473ffffffffffffffffffffffffffffffffffffffff1673ffffffffffffffffffffffffffffffffffffffff1681526020018373ffffffffffffffffffffffffffffffffffffffff1673ffffffffffffffffffffffffffffffffffffffff1681526020018281526020019350505050602060405180830381600087803b15801561189d57600080fd5b505af11580156118b1573d6000803e3d6000fd5b505050506040513d60208110156118c757600080fd5b810190808051906020019092919050505050806006540160068190555080600860003373ffffffffffffffffffffffffffffffffffffffff1673ffffffffffffffffffffffffffffffffffffffff1681526020019081526020016000205401600860003373ffffffffffffffffffffffffffffffffffffffff1673ffffffffffffffffffffffffffffffffffffffff16815260200190815260200160002081905550600a60003373ffffffffffffffffffffffffffffffffffffffff1673ffffffffffffffffffffffffffffffffffffffff16815260200190815260200160002060009054906101000a900460ff16611a2157600e3390806001815401808255809150509060018203906000526020600020016000909192909190916101000a81548173ffffffffffffffffffffffffffffffffffffffff021916908373ffffffffffffffffffffffffffffffffffffffff160217905550505b6001600a60003373ffffffffffffffffffffffffffffffffffffffff1673ffffffffffffffffffffffffffffffffffffffff16815260200190815260200160002060006101000a81548160ff0219169083151502179055506001600c60003373ffffffffffffffffffffffffffffffffffffffff1673ffffffffffffffffffffffffffffffffffffffff16815260200190815260200160002060006101000a81548160ff02191690831515021790555050565b600d8181548110611ae157fe5b906000526020600020016000915054906101000a900473ffffffffffffffffffffffffffffffffffffffff168156fe48616e79612070656d62756174206b6f6e7472616b2079616e67206461706174206d6572756261682041505948616e79612070656d62756174206b6f6e7472616b2079616e67206461706174206d656e646973747269627573696b616e20756c616e674e696c616920415059206861727573206c65626968206461726920302c20636f62612031303020756e74756b2028302e31303025207065726861726929a265627a7a723158206a953c78bc95a924df2c6492fe2da57ad6da83bccb6c23210451c343d0b0a31964736f6c63430005100032",
  "source": "pragma solidity ^0.5.0;\n\nimport \"./DanzeToken.sol\";\n\ncontract TokenStaking {\n    string public name = \"DANZE Token Staking DApp\";\n    DanzeToken public danzeToken;\n\n    //mendeklarasikan variabel status pemilik\n    address public owner;\n\n    //declaring default APY (default 0.1% daily or 36.5% APY yearly)\n    uint256 public defaultAPY = 100;\n\n    //declaring APY for custom staking ( default 0.137% daily or 50% APY yearly)\n    uint256 public customAPY = 137;\n\n    //declaring total staked\n    uint256 public totalStaked;\n    uint256 public customTotalStaked;\n\n    //users staking balance\n    mapping(address => uint256) public stakingBalance;\n    mapping(address => uint256) public customStakingBalance;\n\n    //memetakan daftar pengguna yang pernah staking\n    mapping(address => bool) public hasStaked;\n    mapping(address => bool) public customHasStaked;\n\n    //memetakan daftar pengguna yang staking saat ini\n    mapping(address => bool) public isStakingAtm;\n    mapping(address => bool) public customIsStakingAtm;\n\n    //array semua staker\n    address[] public stakers;\n    address[] public customStakers;\n\n    constructor(DanzeToken _danzeToken) public payable {\n        danzeToken = _danzeToken;\n\n        //deployment token oleh owner\n        owner = msg.sender;\n    }\n\n    //stake tokens function\n\n    function stakeTokens(uint256 _amount) public {\n        //Harus leibh dari 0\n        require(_amount > 0, \"Jumlah harus lebih dari 0\");\n\n        //User menambahkan danze tokens\n        danzeToken.transferFrom(msg.sender, address(this), _amount);\n        totalStaked = totalStaked + _amount;\n\n        //pemetaan untuk memperbarui saldo staking untuk pengguna \n        stakingBalance[msg.sender] = stakingBalance[msg.sender] + _amount;\n\n        //memeriksa apakah pengguna mempertaruhkan sebelumnya atau tidak\n        if (!hasStaked[msg.sender]) {\n            stakers.push(msg.sender);\n        }\n\n        //updating staking status\n        hasStaked[msg.sender] = true;\n        isStakingAtm[msg.sender] = true;\n    }\n\n    //unstake tokens function\n\n    function unstakeTokens() public {\n        //melihat saldo staking pada user\n\n        uint256 balance = stakingBalance[msg.sender];\n\n        //jumlah harus lebih dari 0\n        require(balance > 0, \"Jumlah harus lebih dari 0\");\n\n        //mentransfer token yang di staking kembali ke pengguna\n        danzeToken.transfer(msg.sender, balance);\n        totalStaked = totalStaked - balance;\n\n        //menyetel ulang saldo staking pengguna\n        stakingBalance[msg.sender] = 0;\n\n        //updating staking status\n        isStakingAtm[msg.sender] = false;\n    }\n\n    // different APY Pool\n    function customStaking(uint256 _amount) public {\n        require(_amount > 0, \"harus lebih dari 0\");\n        danzeToken.transferFrom(msg.sender, address(this), _amount);\n        customTotalStaked = customTotalStaked + _amount;\n        customStakingBalance[msg.sender] =\n            customStakingBalance[msg.sender] +\n            _amount;\n\n        if (!customHasStaked[msg.sender]) {\n            customStakers.push(msg.sender);\n        }\n        customHasStaked[msg.sender] = true;\n        customIsStakingAtm[msg.sender] = true;\n    }\n\n    function customUnstake() public {\n        uint256 balance = customStakingBalance[msg.sender];\n        require(balance > 0, \"Jumlah harus lebih dari 0\");\n        danzeToken.transfer(msg.sender, balance);\n        customTotalStaked = customTotalStaked - balance;\n        customStakingBalance[msg.sender] = 0;\n        customIsStakingAtm[msg.sender] = false;\n    }\n\n    //airdropp tokens\n    function redistributeRewards() public {\n        //hanya pemilik yang dapat mengeluarkan airdrop\n        require(msg.sender == owner, \"Hanya pembuat kontrak yang dapat mendistribusikan ulang\");\n\n        //melakukan drop untuk semua alamat\n        for (uint256 i = 0; i < stakers.length; i++) {\n            address recipient = stakers[i];\n\n            //calculating daily apy untuk user\n            uint256 balance = stakingBalance[recipient] * defaultAPY;\n            balance = balance / 100000;\n\n            if (balance > 0) {\n                danzeToken.transfer(recipient, balance);\n            }\n        }\n    }\n\n    //customAPY airdrop\n    function customRewards() public {\n        require(msg.sender == owner, \"Hanya pembuat kontrak yang dapat mendistribusikan ulang\");\n        for (uint256 i = 0; i < customStakers.length; i++) {\n            address recipient = customStakers[i];\n            uint256 balance = customStakingBalance[recipient] * customAPY;\n            balance = balance / 100000;\n\n            if (balance > 0) {\n                danzeToken.transfer(recipient, balance);\n            }\n        }\n    }\n\n    //change APY value for custom staking\n    function changeAPY(uint256 _value) public {\n        //only owner can issue airdrop\n        require(msg.sender == owner, \"Hanya pembuat kontrak yang dapat merubah APY\");\n        require(\n            _value > 0,\n            \"Nilai APY harus lebih dari 0, coba 100 untuk (0.100% perhari)\"\n        );\n        customAPY = _value;\n    }\n\n    //cliam danze 1000 DNZ \n    function claimToken() public {\n        address recipient = msg.sender;\n        uint256 dnz = 1000000000000000000000;\n        uint256 balance = dnz;\n        danzeToken.transfer(recipient, balance);\n    }\n}\n",
  "sourcePath": "C:\\Users\\M8NOC\\OneDrive\\Desktop\\tugasakhir\\DApp\\src\\contracts\\TokenStaking.sol",
  "compiler": {
    "name": "solc",
    "version": "0.5.16+commit.9c3226ce.Emscripten.clang"
  },
  "schemaVersion": "3.4.11",
  "updatedAt": "2022-12-20T22:49:03.100Z",
  "networkType": "ethereum",
  "devdoc": {
    "methods": {}
  },
  "userdoc": {
    "methods": {}
  }
}